:020000040000FA
:100000000C949F000C94C7000C94C7000C94C7007C
:100010000C94C7000C94C7000C94C7000C94870381
:100020000C94C7000C94C7000C94C7000C94C70034
:100030000C94C7000C94C7000C94C7000C94C70024
:100040000C943B040C94C7000C9409040C94E30337
:100050000C94C7000C94C7000C94C7000C94C70004
:100060000C9485040C94C70007634236B79BD8A74D
:100070001A39685618AEBAAB558C1D3CB7CC5763CD
:10008000BD6DEDFD753EF6177231BF000000803F7B
:1000900008000000BE922449123EABAAAA2ABECD97
:1000A000CCCC4C3E00000080BEABAAAAAA3E000009
:1000B0000000BF000000803F000000000008417801
:1000C000D3BB4387D1133D190E3CC3BD4282AD2B38
:1000D0003E68EC8276BED98FE1A93E4C80EFFFBE30
:1000E00001C4FF7F3F000000000000000008000284
:1000F00001000003040700000000000000000200EF
:10010000000000250028002B00000000002400272C
:10011000002A00040404040404040402020202028B
:1001200002030303030303010204081020408001BB
:10013000020408102001020408102000A005112468
:100140001FBECFEFD8E0DEBFCDBF11E0A0E0B1E031
:10015000E2EBF8E102C005900D92A433B107D9F7A4
:1001600022E0A4E3B1E001C01D92AC35B207E1F793
:1001700010E0CFE9D0E004C02197FE010E94510CAD
:10018000CE39D107C9F70E94CD050C94570C0C94B9
:10019000000090E0FC01E95DFE4F24918D5E9E4FD2
:1001A000FC018491882399F090E0880F991FFC014D
:1001B000E75FFE4FA591B491FC01E150FF4F85919F
:1001C00094918FB7F894EC91E22BEC938FBF089544
:1001D000AF92BF92CF92DF92EF92FF920F931F9355
:1001E000CF93DF936C017B018B01040F151FEB0193
:1001F0005E01AE18BF08C017D10759F06991D6014A
:10020000ED91FC910190F081E02DC6010995892BBB
:1002100079F7C501DF91CF911F910F91FF90EF907A
:10022000DF90CF90BF90AF900895FC01538D448D27
:10023000252F30E0842F90E0821B930B541710F091
:10024000CF96089501970895FC01918D828D98179E
:1002500061F0A28DAE0FBF2FB11D5D968C91928D76
:100260009F5F9F73928F90E008958FEF9FEF0895A7
:10027000FC01918D828D981731F0828DE80FF11D70
:10028000858D90E008958FEF9FEF0895FC01918D8B
:10029000228D892F90E0805C9F4F821B91098F7384
:1002A000992708958FEB91E00E94460121E0892B68
:1002B00009F420E0822F089580E090E0892B29F056
:1002C0000E94520181110C9400000895FC01A48D3C
:1002D000A80FB92FB11DA35ABF4F2C91848D90E068
:1002E00001968F739927848FA689B7892C93A0894B
:1002F000B1898C91837080648C93938D848D9813D5
:1003000006C00288F389E02D80818F7D8083089567
:10031000EF92FF920F931F93CF93DF93EC0181E055
:10032000888F9B8D8C8D98131AC0E889F9898081FC
:1003300085FF15C09FB7F894EE89FF896083E8892F
:10034000F98980818370806480839FBF81E090E021
:10035000DF91CF911F910F91FF90EF900895F62EAE
:100360000B8D10E00F5F1F4F0F731127E02E8C8D48
:100370008E110CC00FB607FCFACFE889F98980818D
:1003800085FFF5CFCE010E946601F1CFEB8DEC0F1A
:10039000FD2FF11DE35AFF4FF0829FB7F8940B8FAA
:1003A000EA89FB8980818062CFCFCF93DF93EC0114
:1003B000888D8823B9F0AA89BB89E889F9898C914D
:1003C00085FD03C0808186FD0DC00FB607FCF7CF09
:1003D0008C9185FFF2CF808185FFEDCFCE010E9409
:1003E0006601E9CFDF91CF91089590E0FC01E651DD
:1003F000FF4F2491FC01E95DFE4F3491FC01ED5E5D
:10040000FE4FE491EE23C9F0222339F0233001F1AD
:10041000A8F4213019F1223029F1F0E0EE0FFF1F8E
:10042000E150FF4FA591B4918FB7F894EC91611111
:1004300026C030953E233C938FBF08952730A9F006
:100440002830C9F0243049F7809180008F7D03C0A7
:10045000809180008F7780938000DFCF84B58F7785
:1004600084BDDBCF84B58F7DFBCF8091B0008F77CB
:100470008093B000D2CF8091B0008F7DF9CF3E2B1A
:10048000DACF9091000189130BC0EEEFF0E0E49118
:100490009FEF90930001E13049F028F0E23061F0E5
:1004A00060E00C94F50110926E00FACF90916F000D
:1004B0009D7F90936F00F4CF909170009D7F9093FB
:1004C000700091E09093B0009091B100987F94609B
:1004D0009093B1001092B300E3CF20915B01260FFF
:1004E0003327331F21323105ECF420917F01FC01C9
:1004F00090E080E0243069F082E00895A0915B01F3
:100500002191AC01455C5E4FA40FB52FB11D2C931A
:100510000196861798F380915B01680F60935B01E9
:1005200080E0089581E0089508958FEF9FEF08958A
:100530008FEF9FEF08958091340190E09195819520
:1005400091090895CF93DF93CB01EA01642F0E94B4
:100550006D02CE01DF91CF910895CF93DF931F926B
:10056000CDB7DEB7698361E0CE0101960E946D02CE
:1005700081E090E00F90DF91CF91089590E080E0CE
:100580000895FC0101900020E9F73197AF01481B65
:10059000590BBC018FEB91E00C94E8008F929F9275
:1005A000AF92BF920F931F93CF93DF93CDB7DEB778
:1005B000A1970FB6F894DEBF0FBECDBF19A242308F
:1005C00008F44AE08E010F5D1F4F842E912CB12C50
:1005D000A12CA50194010E942F0CE62FB901CA019C
:1005E000EA30F4F4E05DD801EE938D01232B242B47
:1005F000252B79F790E080E0109719F0CD010E944B
:10060000C102A1960FB6F894DEBF0FBECDBFDF9139
:10061000CF911F910F91BF90AF909F908F900895B1
:10062000E95CE1CF1F93CF93DF9385ED8093BC000E
:100630008091370190913801A0913901B0913A0130
:100640000796A11DB11D23E0B695A79597958795AF
:100650002A95D1F72091BC0024FD03C010927F01A0
:1006600052C0409137015091380160913901709129
:100670003A01452B462B472B69F30097A105B1059D
:1006800041F025E32A95F1F700000197A109B1098E
:10069000E1CF80913601C1E0C0933501882399F103
:1006A000D091B8001091BA008091BC008A7B8093F1
:1006B000BC0060E082E10E94F50160E083E10E94FD
:1006C000F50110927F01C09381011092800161E0D9
:1006D00082E10E94F50161E083E10E94F5018091D1
:1006E000B9008E7F8093B9008091B9008D7F80938F
:1006F000B90088E48093B80085E48093BC0010932F
:10070000BA00D093B800DF91CF911F9108951F9246
:100710000F920FB60F9211242F933F934F935F9335
:100720006F937F938F939F93AF93BF93EF93FF93B9
:100730008091B3019091B401A091B501B091B6013F
:10074000892B8A2B8B2BD1F19091AE01E091AF01D7
:10075000F091B0018081892780838091B3019091CD
:10076000B401A091B501B091B601181619061A0688
:100770001B069CF48091B3019091B401A091B50146
:10078000B091B6010197A109B1098093B30190938B
:10079000B401A093B501B093B601FF91EF91BF9161
:1007A000AF919F918F917F916F915F914F913F9109
:1007B0002F910F900FBE0F901F9018958091000100
:1007C0000E944102EACF1F920F920FB60F9211249E
:1007D0002F933F934F935F936F937F938F939F9349
:1007E000AF93BF93EF93FF938FEB91E00E9466016D
:1007F000FF91EF91BF91AF919F918F917F916F91F9
:100800005F914F913F912F910F900FBE0F901F90CE
:1008100018951F920F920FB60F9211242F938F935A
:100820009F93EF93FF93E091CF01F091D0018081EE
:10083000E091D501F091D60182FD1BC0908180919D
:10084000D8018F5F8F732091D901821741F0E09119
:10085000D801F0E0E154FE4F958F8093D801FF91CD
:10086000EF919F918F912F910F900FBE0F901F903E
:1008700018958081F4CF1F920F920FB60F9211241A
:100880002F933F938F939F93AF93BF938091AA0130
:100890009091AB01A091AC01B091AD013091A90153
:1008A00023E0230F2D3758F50196A11DB11D20938C
:1008B000A9018093AA019093AB01A093AC01B093DE
:1008C000AD018091A5019091A601A091A701B091E1
:1008D000A8010196A11DB11D8093A5019093A601C9
:1008E000A093A701B093A801BF91AF919F918F9161
:1008F0003F912F910F900FBE0F901F90189526E8F3
:10090000230F0296A11DB11DD2CF1F920F920FB6D9
:100910000F9211242F933F934F935F936F937F9385
:100920008F939F93AF93BF93EF93FF938091B90001
:10093000887F803609F44AC0F0F5883209F4A5C0F2
:1009400018F5803109F499C0B8F4882309F4F5C08A
:10095000883009F492C0FF91EF91BF91AF919F91C0
:100960008F917F916F915F914F913F912F910F9058
:100970000FBE0F901F901895883109F486C0803201
:1009800051F780937E0114C0803409F49BC040F479
:100990008033B9F38833F9F680937E0185ECAEC0DD
:1009A000803509F483C0883509F494C0883499F6F9
:1009B0000E941203D0CF883909F48AC038F58837ED
:1009C00029F050F4883611F0803729F683E08093BF
:1009D0007F0110927D0155C0883809F479C08039B3
:1009E00019F0803809F0B7CF80917D01803208F08E
:1009F0006FC0E0917D0181E08E0F80937D01809139
:100A0000BB00F0E0E35AFE4F80833BC0803B39F0EF
:100A1000D0F4803A09F477C0883A09F09CCF84E09A
:100A200080937F0110925C0110925B01F0E0E0E0A6
:100A3000099580915B0181110FC081E080935B017A
:100A400010923B0109C0803C09F4A8CF883C09F40E
:100A5000A5CF883B09F07FCFE0915C0181E08E0F4C
:100A600080935C01F0E0E55CFE4F80818093BB00E9
:100A700090915C0180915B0129C08091A4018093D9
:100A8000BB0085EC8093BC0066CF9091A301809160
:100A9000A201981758F5E091A30181E08E0F809391
:100AA000A301F0E0EE57FE4F8081E9CFE091A30172
:100AB00081E08E0F8093A3018091BB00F0E0EE57A0
:100AC000FE4F80839091A3018091A2019817C8F2F4
:100AD00085E8D8CFE091A30181E08E0F8093A30138
:100AE0008091BB00F0E0EE57FE4F80838091810142
:100AF00081115ECF81E08093800184EA8093BC0005
:100B000010927F0128CF85EC8093BC0010927F016A
:100B100080917D01803230F4E0917D01F0E0E35A74
:100B2000FE4F108260917D0170E08DE591E0F0E074
:100B3000E0E0099510927D010ECF10927E0138CF32
:100B4000EFEBF1E01382128288EE93E0A0E0B0E0D8
:100B500084839583A683B78385E091E09183808326
:100B600085EC90E09587848784EC90E09787868772
:100B700080EC90E0918B808B81EC90E0938B828B6A
:100B800082EC90E0958B848B86EC90E0978B868B43
:100B9000118E128E138E148E0895789484B582600F
:100BA00084BD84B5816084BD85B5826085BD85B511
:100BB000816085BD80916E00816080936E0010928F
:100BC000810080918100826080938100809181000A
:100BD000816080938100809180008160809380009B
:100BE0008091B10084608093B1008091B0008160F9
:100BF0008093B00080917A00846080937A00809125
:100C00007A00826080937A0080917A00816080937C
:100C10007A0080917A00806880937A001092C100F7
:100C200089E00E94C90088E00E94C90087E00E9414
:100C3000C900E091CF01F091D00182E08083E09182
:100C4000CB01F091CC011082E091CD01F091CE0169
:100C50008FEC80831092D701E091D301F091D40101
:100C600086E08083E091D101F091D20180818061A2
:100C70008083E091D101F091D201808188608083EE
:100C8000E091D101F091D201808180688083E09170
:100C9000D101F091D20180818F7D80833AE1232EB2
:100CA00031E0332ECEE2D1E010E410937C0080914D
:100CB0007A00806480937A0080917A0086FDFCCF70
:100CC0008091780060917900762F682F072E000CB4
:100CD000880B990B0E9483099B01AC0160E070ECCA
:100CE0008FE794E40E94E00820E030E040EA50E41E
:100CF0000E94380A20E030E040E85FE30E946E087E
:100D000020E030E040E251E40E94380A2FE832E46B
:100D100049E952E40E94E0082EED37E341E350EC4C
:100D20000E94A50A22E434E349EE52E40E94380A04
:100D30006B017C0183E191E00E94C102A701960151
:100D4000C701B6010E94F50A882379F180E291E09B
:100D50000E94C1028CE291E00E94C10281E391E015
:100D60000E94C10220E030E04AE754E4C701B60126
:100D70000E94DB0818160CF4AAC061E088E00E940B
:100D8000F50160E089E00E94F50187E00E944102E0
:100D9000A0E0B0E0AB2B09F488CF0E945201882379
:100DA00009F482CF0E9400007FCF46015701E894EA
:100DB000B7F82FEF3FEF4FE75FE7C501B4010E949F
:100DC000F50A81110DC02FEF3FEF4FE75FE7C50137
:100DD000B4010E94DB0818161CF484E291E0B8CF3D
:100DE0002FEF3FEF4FE75FE4C701B6010E94330AE0
:100DF00018161CF488E291E0ABCF2FEF3FEF4FE7DE
:100E00005FECC701B6010E94DB0887FDF3CF20E04D
:100E100030E0A901C701B6010E94DB0887FF54C07A
:100E20006DE28FEB91E00E948801C701B6019058F6
:100E30002AE037ED43EA5BE30E946F082B013C0197
:100E40000E9452094B015C010E9481099B01AC0187
:100E5000C301B2010E946E082B013C014AE0C501AA
:100E6000B4010E94CE026EE28FEB91E00E948801F5
:100E700020E030E040E251E4C301B2010E94380AB0
:100E80002B013C010E9452094B01B12CA12C4AE0DC
:100E9000C501B4010E94CE02C501B4010E948109BE
:100EA0009B01AC01C301B2010E946E0820E030E05A
:100EB00040E251E40E94380A0E94520990E080E02A
:100EC0004AE00E94CE0246CFC701B601B1CF20E072
:100ED00030E04AE754E4C701B6010E94330A87FDB7
:100EE00010C020E030E04AEF54E4C701B6010E9490
:100EF000DB08181634F060E088E00E94F50161E03C
:100F000041CF20E030E04AEF54E4C701B6010E942F
:100F1000330A87FD3DCF60E088E00E94F50161E083
:100F200089E00E94F50180910001873049F5EEEFDC
:100F3000F0E0049107FD2CCF87E00E94C900002358
:100F400009F48CC0023009F0A1C08091B100887F03
:100F500083608093B10089EF8093B30080E991E0D2
:100F6000A0E0B0E08093B3019093B401A093B501E9
:100F7000B093B6018091700082608093700008CFBA
:100F80008F3F09F005CF87E080930001EEEFF0E09E
:100F900004910F3F09F4FCCE013011F148F002300A
:100FA00009F43BC007FDF4CE87E00E94C900CACF18
:100FB00014BC15BC84B5826084BD85B5816085BDD7
:100FC000F1018491E82FF0E0EE0FFF1FE150FF4F99
:100FD00085919491FE0184918093B20100E0ACCFA1
:100FE000109280001092810080918100886080932F
:100FF000810080918100816080938100F101849162
:10100000E82FF0E0EE0FFF1FE150FF4F8591949124
:10101000FE0184918093B1018FCF1092B0001092A5
:10102000B1008091B00082608093B0008091B100E7
:1010300081608093B100F1018491E82FF0E0EE0F20
:10104000FF1FE150FF4F859194919093B0018093E1
:10105000AF01FE0184918093AE016ECF85B5887F8C
:10106000836085BD8CE787BD80E991E0A0E0B0E0BA
:101070008093BB019093BC01A093BD01B093BE01CE
:1010800080916E00826080936E0082CE0130F1F418
:1010900080918100887F8160809381008FE39FE150
:1010A000909389008093880080E991E0A0E0B0E00F
:1010B0008093B7019093B801A093B901B093BA019E
:1010C00080916F00826080936F0062CE023021F0C9
:1010D00001115ECE8FE3C7CF8FE33ECF5058BB27C1
:1010E000AA270E9486080C94F9090E94EB0938F09F
:1010F0000E94F20920F039F49F3F19F426F40C9471
:10110000E8090EF4E095E7FB0C94E209E92F0E9450
:101110000A0A58F3BA17620773078407950720F085
:1011200079F4A6F50C942C0A0EF4E0950B2EBA2F48
:10113000A02D0B01B90190010C01CA01A0011124DD
:10114000FF27591B99F0593F50F4503E68F11A1689
:10115000F040A22F232F342F4427585FF3CF46951A
:1011600037952795A795F0405395C9F77EF41F163C
:10117000BA0B620B730B840BBAF09150A1F0FF0F06
:10118000BB1F661F771F881FC2F70EC0BA0F621FF2
:10119000731F841F48F4879577956795B795F795E2
:1011A0009E3F08F0B0CF9395880F08F09927EE0F77
:1011B0009795879508950E94BE0908F481E00895E7
:1011C0000E94F4080C94F9090E94F20958F00E9458
:1011D000EB0940F029F45F3F29F00C94E20951112A
:1011E0000C942D0A0C94E8090E940A0A68F39923CA
:1011F000B1F3552391F3951B550BBB27AA27621713
:101200007307840738F09F5F5F4F220F331F441F1F
:10121000AA1FA9F335D00E2E3AF0E0E832D0915053
:101220005040E695001CCAF72BD0FE2F29D0660F40
:10123000771F881FBB1F261737074807AB07B0E883
:1012400009F0BB0B802DBF01FF2793585F4F3AF089
:101250009E3F510578F00C94E2090C942D0A5F3FF3
:10126000E4F3983ED4F3869577956795B795F7950F
:101270009F5FC9F7880F911D9695879597F90895F7
:10128000E1E0660F771F881FBB1F62177307840793
:10129000BA0720F0621B730B840BBA0BEE1F88F7A2
:1012A000E09508950E94120A88F09F5798F0B92F90
:1012B0009927B751B0F0E1F0660F771F881F991F8B
:1012C0001AF0BA95C9F714C0B13091F00E942C0AF7
:1012D000B1E008950C942C0A672F782F8827B85F07
:1012E00039F0B93FCCF3869577956795B395D9F7E3
:1012F0003EF490958095709561957F4F8F4F9F4FED
:101300000895E89409C097FB3EF4909580957095F8
:1013100061957F4F8F4F9F4F9923A9F0F92F96E941
:10132000BB279395F695879577956795B795F111B6
:10133000F8CFFAF4BB0F11F460FF1BC06F5F7F4F53
:101340008F4F9F4F16C0882311F096E911C0772365
:1013500021F09EE8872F762F05C0662371F096E86E
:10136000862F70E060E02AF09A95660F771F881F3D
:10137000DAF7880F9695879597F90895990F0008E1
:10138000550FAA0BE0E8FEEF16161706E807F90757
:10139000C0F012161306E407F50798F0621B730BF2
:1013A000840B950B39F40A2661F0232B242B252B73
:1013B00021F408950A2609F4A140A6958FEF811D16
:1013C000811D089597F99F6780E870E060E00895B7
:1013D0009FEF80EC089500240A941616170618064D
:1013E0000906089500240A94121613061406050629
:1013F0000895092E0394000C11F4882352F0BB0FBA
:1014000040F4BF2B11F460FF04C06F5F7F4F8F4F1C
:101410009F4F089557FD9058440F551F59F05F3F57
:1014200071F04795880F97FB991F61F09F3F79F006
:1014300087950895121613061406551FF2CF469588
:10144000F1DF08C0161617061806991FF1CF86950A
:101450007105610508940895E894BB2766277727EE
:10146000CB0197F908950E94BE0908F48FEF089503
:101470000E944B0A0C94F9090E94EB0938F00E9473
:10148000F20920F0952311F00C94E2090C94E8097C
:1014900011240C942D0A0E940A0A70F3959FC1F33F
:1014A000950F50E0551F629FF001729FBB27F00D12
:1014B000B11D639FAA27F00DB11DAA1F649F662767
:1014C000B00DA11D661F829F2227B00DA11D621FB6
:1014D000739FB00DA11D621F839FA00D611D221F70
:1014E000749F3327A00D611D231F849F600D211D54
:1014F000822F762F6A2F11249F5750409AF0F1F0D7
:1015000088234AF0EE0FFF1FBB1F661F771F881F3F
:1015100091505040A9F79E3F510580F00C94E2098C
:101520000C942D0A5F3FE4F3983ED4F386957795AB
:101530006795B795F795E7959F5FC1F7FE2B880FE5
:10154000911D9695879597F90895FA01EE0FFF1F63
:10155000309621053105A1F16115710561F48038DE
:10156000BFE39B0749F168949038810561F08038AA
:10157000BFEF9B0741F099234AF5FF3FE105310595
:10158000210519F1E8940894E795D901AA2329F4D3
:10159000AB2FBE2FF85FD0F310C0FF5F70F4A6959D
:1015A000E0F7F73950F019F0FF3A38F49F779F933E
:1015B0000DD00F9007FC9058089546F00C94E80960
:1015C00060E070E080E89FE308954FE79F775F93C6
:1015D0004F933F932F930E94A50B2F913F914F91D3
:1015E0005F910E94380A0C94020B0E94BE09880B7E
:1015F000990B089529F416F00C94E2090C942C0A26
:101600000C94E8090E94120AA8F39638A0F707F88C
:101610000F92E8942BE33AEA48EB5FE70E944E0A08
:101620000F920F920F924DB75EB70F920E94ED0B83
:10163000E8E6F0E00E94340B4F915F91EF91FF914B
:10164000E595EE1FFF1F49F0FE57E0684427EE0FB7
:10165000441FFA95E1F74195550B0E94670B0F90D7
:1016600007FE0C945B0B0895DF93CF931F930F93AA
:10167000FF92EF92DF927B018C01689406C0DA2E14
:10168000EF010E944B0AFE01E894A5912591359146
:1016900045915591A6F3EF010E948608FE0197013E
:1016A000A801DA9469F7DF90EF90FF900F911F91F6
:1016B000CF91DF9108959B01AC0160E070E080E87C
:1016C0009FE30C94E0080C94E2090C94210C0E9416
:1016D000120AD8F39923C9F3940F511DA3F3915023
:1016E000504094F059F0882332F0660F771F881F1E
:1016F00091505040C1F79E3F51052CF7880F911D26
:101700009695879597F908955F3FACF0983E9CF0C9
:10171000BB27869577956795B79508F4B160939543
:10172000C1F7BB0F58F711F460FFE8CF6F5F7F4F31
:101730008F4F9F4FE3CF0C942D0A16F00C94210C81
:101740000C94E80968940C94E2090E94120AA8F328
:101750009923C1F3AEF3DF93CF931F930F93FF92BF
:10176000C92FDD2788232AF02197660F771F881F4E
:10177000DAF720E030E040E85FEB9FE3883920F0C3
:10178000803E38F021968F770E946F08E0E9F0E004
:1017900004C00E946F08EDEBF0E00E94340B8B0157
:1017A000BE01EC01FB2E6F5771097595771F880BF1
:1017B000990B0E94830928E132E741E35FE30E942D
:1017C0004B0AAF2D9801AE01FF900F911F91CF9161
:1017D000DF910E9486080C94F909FA01DC01AA0F36
:1017E000BB1F9B01AC01BF5728F422273327442796
:1017F000507820C0B75190F4AB2F00244695379510
:101800002795011CA395D2F3002071F0220F331FFE
:10181000441FB395DAF30ED00C946E086130710555
:10182000A0E88A07B94630F49B01AC016627772708
:1018300088279078309621F0208331834283538328
:1018400008959F3F31F0915020F4879577956795E3
:10185000B795880F911D9695879597F90895A1E200
:101860001A2EAA1BBB1BFD010DC0AA1FBB1FEE1F1A
:10187000FF1FA217B307E407F50720F0A21BB30B65
:10188000E40BF50B661F771F881F991F1A9469F7E1
:1018900060957095809590959B01AC01BD01CF013D
:1018A0000895EE0FFF1F0590F491E02D0994F89430
:1018B000FFCFFF000000008801E8001501D50146B8
:1018C0000124013801416972205175616C69747994
:1018D0003A006E616E00696E66006F766600205099
:0618E000504D000D0A004E
:107E0000112484B714BE81FFF0D085E080938100F7
:107E100082E08093C00088E18093C10086E0809377
:107E2000C20080E18093C4008EE0C9D0259A86E02C
:107E300020E33CEF91E0309385002093840096BBD3
:107E4000B09BFECF1D9AA8958150A9F7CC24DD24C4
:107E500088248394B5E0AB2EA1E19A2EF3E0BF2EE7
:107E6000A2D0813461F49FD0082FAFD0023811F036
:107E7000013811F484E001C083E08DD089C08234E0
:107E800011F484E103C0853419F485E0A6D080C0E4
:107E9000853579F488D0E82EFF2485D0082F10E0AE
:107EA000102F00270E291F29000F111F8ED06801E7
:107EB0006FC0863521F484E090D080E0DECF843638
:107EC00009F040C070D06FD0082F6DD080E0C81688
:107ED00080E7D80618F4F601B7BEE895C0E0D1E017
:107EE00062D089930C17E1F7F0E0CF16F0E7DF06D8
:107EF00018F0F601B7BEE89568D007B600FCFDCFD4
:107F0000A601A0E0B1E02C9130E011968C91119780
:107F100090E0982F8827822B932B1296FA010C0160
:107F200087BEE89511244E5F5F4FF1E0A038BF0790
:107F300051F7F601A7BEE89507B600FCFDCF97BE46
:107F4000E89526C08437B1F42ED02DD0F82E2BD052
:107F50003CD0F601EF2C8F010F5F1F4F84911BD097
:107F6000EA94F801C1F70894C11CD11CFA94CF0C13
:107F7000D11C0EC0853739F428D08EE10CD085E9AC
:107F80000AD08FE07ACF813511F488E018D01DD067
:107F900080E101D065CF982F8091C00085FFFCCF94
:107FA0009093C60008958091C00087FFFCCF809118
:107FB000C00084FD01C0A8958091C6000895E0E648
:107FC000F0E098E1908380830895EDDF803219F02E
:107FD00088E0F5DFFFCF84E1DECF1F93182FE3DFCA
:107FE0001150E9F7F2DF1F91089580E0E8DFEE27F6
:047FF000FF270994CA
:027FFE00040479
:00000001FF
